{
  "contractName": "Asn1Decode",
  "abi": [
    {
      "constant": true,
      "inputs": [],
      "name": "LOCATION_VALID_NOT_AFTER",
      "outputs": [
        {
          "name": "",
          "type": "bytes"
        }
      ],
      "payable": false,
      "stateMutability": "view",
      "type": "function"
    },
    {
      "constant": true,
      "inputs": [],
      "name": "LOCATION_SERIAL_NUMBER",
      "outputs": [
        {
          "name": "",
          "type": "bytes"
        }
      ],
      "payable": false,
      "stateMutability": "view",
      "type": "function"
    },
    {
      "constant": true,
      "inputs": [],
      "name": "COMMON_NAME",
      "outputs": [
        {
          "name": "",
          "type": "bytes"
        }
      ],
      "payable": false,
      "stateMutability": "view",
      "type": "function"
    },
    {
      "constant": true,
      "inputs": [],
      "name": "LOCATION_VALID_NOT_BEFORE",
      "outputs": [
        {
          "name": "",
          "type": "bytes"
        }
      ],
      "payable": false,
      "stateMutability": "view",
      "type": "function"
    },
    {
      "constant": true,
      "inputs": [],
      "name": "LOCATION_PUB_KEY",
      "outputs": [
        {
          "name": "",
          "type": "bytes"
        }
      ],
      "payable": false,
      "stateMutability": "view",
      "type": "function"
    },
    {
      "constant": true,
      "inputs": [
        {
          "name": "der",
          "type": "bytes"
        }
      ],
      "name": "root",
      "outputs": [
        {
          "name": "",
          "type": "uint256"
        }
      ],
      "payable": false,
      "stateMutability": "pure",
      "type": "function"
    },
    {
      "constant": true,
      "inputs": [
        {
          "name": "self",
          "type": "uint256"
        },
        {
          "name": "der",
          "type": "bytes"
        }
      ],
      "name": "next",
      "outputs": [
        {
          "name": "",
          "type": "uint256"
        }
      ],
      "payable": false,
      "stateMutability": "pure",
      "type": "function"
    },
    {
      "constant": true,
      "inputs": [
        {
          "name": "self",
          "type": "uint256"
        },
        {
          "name": "der",
          "type": "bytes"
        }
      ],
      "name": "firstChild",
      "outputs": [
        {
          "name": "",
          "type": "uint256"
        }
      ],
      "payable": false,
      "stateMutability": "pure",
      "type": "function"
    },
    {
      "constant": true,
      "inputs": [
        {
          "name": "i",
          "type": "uint256"
        },
        {
          "name": "j",
          "type": "uint256"
        }
      ],
      "name": "isChildOf",
      "outputs": [
        {
          "name": "",
          "type": "bool"
        }
      ],
      "payable": false,
      "stateMutability": "pure",
      "type": "function"
    },
    {
      "constant": true,
      "inputs": [
        {
          "name": "der",
          "type": "bytes"
        },
        {
          "name": "location",
          "type": "bytes"
        }
      ],
      "name": "traverse",
      "outputs": [
        {
          "name": "",
          "type": "uint256"
        }
      ],
      "payable": false,
      "stateMutability": "pure",
      "type": "function"
    },
    {
      "constant": true,
      "inputs": [
        {
          "name": "self",
          "type": "uint256"
        },
        {
          "name": "der",
          "type": "bytes"
        }
      ],
      "name": "getValue",
      "outputs": [
        {
          "name": "",
          "type": "bytes"
        }
      ],
      "payable": false,
      "stateMutability": "pure",
      "type": "function"
    },
    {
      "constant": true,
      "inputs": [
        {
          "name": "self",
          "type": "uint256"
        },
        {
          "name": "der",
          "type": "bytes"
        }
      ],
      "name": "getAll",
      "outputs": [
        {
          "name": "",
          "type": "bytes"
        }
      ],
      "payable": false,
      "stateMutability": "pure",
      "type": "function"
    },
    {
      "constant": true,
      "inputs": [
        {
          "name": "bitstr",
          "type": "bytes"
        }
      ],
      "name": "decodeBitstring",
      "outputs": [
        {
          "name": "",
          "type": "bytes"
        }
      ],
      "payable": false,
      "stateMutability": "pure",
      "type": "function"
    },
    {
      "constant": true,
      "inputs": [
        {
          "name": "encodedUint",
          "type": "bytes"
        }
      ],
      "name": "decodeUint",
      "outputs": [
        {
          "name": "",
          "type": "uint256"
        }
      ],
      "payable": false,
      "stateMutability": "pure",
      "type": "function"
    }
  ],
  "bytecode": "0x611516610030600b82828239805160001a6073146000811461002057610022565bfe5b5030600052607381538281f30073000000000000000000000000000000000000000030146080604052600436106100e7576000357c0100000000000000000000000000000000000000000000000000000000900463ffffffff1680631d357890146100ec5780632b2e939c1461016f5780633f65f7551461024e578063536161801461030457806358f63b45146103e35780635fdd22c7146104665780636ff24701146104e957806379b1fb6b146105595780637dec8a3d1461062e5780638b694491146106b1578063bc3b643f14610734578063c2e9e208146107ae578063d24654081461081e578063e383daf914610860575b600080fd5b6100f46108da565b6040518080602001828103825283818151815260200191508051906020019080838360005b83811015610134578082015181840152602081019050610119565b50505050905090810190601f1680156101615780820380516001836020036101000a031916815260200191505b509250505060405180910390f35b6101d360048036038101908080359060200190929190803590602001908201803590602001908080601f0160208091040260200160405190810160405280939291908181526020018383808284378201915050505050509192919290505050610912565b6040518080602001828103825283818151815260200191508051906020019080838360005b838110156102135780820151818401526020810190506101f8565b50505050905090810190601f1680156102405780820380516001836020036101000a031916815260200191505b509250505060405180910390f35b6102ee600480360381019080803590602001908201803590602001908080601f0160208091040260200160405190810160405280939291908181526020018383808284378201915050505050509192919290803590602001908201803590602001908080601f0160208091040260200160405190810160405280939291908181526020018383808284378201915050505050509192919290505050610a2f565b6040518082815260200191505060405180910390f35b61036860048036038101908080359060200190929190803590602001908201803590602001908080601f0160208091040260200160405190810160405280939291908181526020018383808284378201915050505050509192919290505050610bdf565b6040518080602001828103825283818151815260200191508051906020019080838360005b838110156103a857808201518184015260208101905061038d565b50505050905090810190601f1680156103d55780820380516001836020036101000a031916815260200191505b509250505060405180910390f35b6103eb610cfc565b6040518080602001828103825283818151815260200191508051906020019080838360005b8381101561042b578082015181840152602081019050610410565b50505050905090810190601f1680156104585780820380516001836020036101000a031916815260200191505b509250505060405180910390f35b61046e610d34565b6040518080602001828103825283818151815260200191508051906020019080838360005b838110156104ae578082015181840152602081019050610493565b50505050905090810190601f1680156104db5780820380516001836020036101000a031916815260200191505b509250505060405180910390f35b610543600480360381019080803590602001908201803590602001908080601f0160208091040260200160405190810160405280939291908181526020018383808284378201915050505050509192919290505050610d6d565b6040518082815260200191505060405180910390f35b6105b3600480360381019080803590602001908201803590602001908080601f0160208091040260200160405190810160405280939291908181526020018383808284378201915050505050509192919290505050610e2a565b6040518080602001828103825283818151815260200191508051906020019080838360005b838110156105f35780820151818401526020810190506105d8565b50505050905090810190601f1680156106205780820380516001836020036101000a031916815260200191505b509250505060405180910390f35b610636610fd3565b6040518080602001828103825283818151815260200191508051906020019080838360005b8381101561067657808201518184015260208101905061065b565b50505050905090810190601f1680156106a35780820380516001836020036101000a031916815260200191505b509250505060405180910390f35b6106b961100b565b6040518080602001828103825283818151815260200191508051906020019080838360005b838110156106f95780820151818401526020810190506106de565b50505050905090810190601f1680156107265780820380516001836020036101000a031916815260200191505b509250505060405180910390f35b61079860048036038101908080359060200190929190803590602001908201803590602001908080601f0160208091040260200160405190810160405280939291908181526020018383808284378201915050505050509192919290505050611043565b6040518082815260200191505060405180910390f35b610808600480360381019080803590602001908201803590602001908080601f0160208091040260200160405190810160405280939291908181526020018383808284378201915050505050509192919290505050611062565b6040518082815260200191505060405180910390f35b6108466004803603810190808035906020019092919080359060200190929190505050611076565b604051808215151515815260200191505060405180910390f35b6108c460048036038101908080359060200190929190803590602001908201803590602001908080601f01602080910402602001604051908101604052809392919081815260200183838082843782019150505050505091929192905050506110e7565b6040518082815260200191505060405180910390f35b6040805190810160405280600581526020017e0204010100000000000000000000000000000000000000000000000000000081525081565b6060600060606000610923866111db565b600161092e886111f1565b01039250826040519080825280601f01601f1916602001820160405280156109655781602001602082028038833980820191505090505b509150600090505b82811015610a23578481610980886111db565b0181518110151561098d57fe5b9060200101517f010000000000000000000000000000000000000000000000000000000000000090047f01000000000000000000000000000000000000000000000000000000000000000282828151811015156109e657fe5b9060200101907effffffffffffffffffffffffffffffffffffffffffffffffffffffffffffff1916908160001a905350808060010191505061096d565b81935050505092915050565b600080600080610a3e86611062565b9250600091505b84518260ff161015610bd357600060028360ff16811515610a6257fe5b0660ff161415610b1b57600090505b848260ff16815181101515610a8257fe5b9060200101517f010000000000000000000000000000000000000000000000000000000000000090047f0100000000000000000000000000000000000000000000000000000000000000027f0100000000000000000000000000000000000000000000000000000000000000900460ff168160ff161015610b1657610b078387611043565b92508080600101915050610a71565b610bc6565b600090505b848260ff16815181101515610b3157fe5b9060200101517f010000000000000000000000000000000000000000000000000000000000000090047f0100000000000000000000000000000000000000000000000000000000000000027f0100000000000000000000000000000000000000000000000000000000000000900460ff168160ff161015610bc557610bb683876110e7565b92508080600101915050610b20565b5b8180600101925050610a45565b82935050505092915050565b6060600060606000610bf08661120f565b6001610bfb886111f1565b01039250826040519080825280601f01601f191660200182016040528015610c325781602001602082028038833980820191505090505b509150600090505b82811015610cf0578481610c4d8861120f565b01815181101515610c5a57fe5b9060200101517f010000000000000000000000000000000000000000000000000000000000000090047f0100000000000000000000000000000000000000000000000000000000000000028282815181101515610cb357fe5b9060200101907effffffffffffffffffffffffffffffffffffffffffffffffffffffffffffff1916908160001a9053508080600101915050610c3a565b81935050505092915050565b6040805190810160405280600381526020017e0201000000000000000000000000000000000000000000000000000000000081525081565b6040805190810160405280600381526020017f550403000000000000000000000000000000000000000000000000000000000081525081565b6000806000809150600090505b83518160ff161015610e20576008829060020a029150838160ff16815181101515610da157fe5b9060200101517f010000000000000000000000000000000000000000000000000000000000000090047f0100000000000000000000000000000000000000000000000000000000000000027f01000000000000000000000000000000000000000000000000000000000000009004821791508080600101915050610d7a565b8192505050919050565b6060806000807f010000000000000000000000000000000000000000000000000000000000000002846000815181101515610e6157fe5b9060200101517f010000000000000000000000000000000000000000000000000000000000000090047f0100000000000000000000000000000000000000000000000000000000000000027effffffffffffffffffffffffffffffffffffffffffffffffffffffffffffff1916141515610eda57600080fd5b60018451036040519080825280601f01601f191660200182016040528015610f115781602001602082028038833980820191505090505b509150600090505b8151811015610fc9578360018201815181101515610f3357fe5b9060200101517f010000000000000000000000000000000000000000000000000000000000000090047f0100000000000000000000000000000000000000000000000000000000000000028282815181101515610f8c57fe5b9060200101907effffffffffffffffffffffffffffffffffffffffffffffffffffffffffffff1916908160001a9053508080600101915050610f19565b8192505050919050565b6040805190810160405280600481526020017e0204010000000000000000000000000000000000000000000000000000000081525081565b6040805190810160405280600381526020017e0206000000000000000000000000000000000000000000000000000000000081525081565b600061105a826001611054866111f1565b0161122d565b905092915050565b600061106f82600061122d565b9050919050565b6000611081826111db565b61108a8461120f565b111580156110a8575061109c836111f1565b6110a5836111f1565b11155b806110df57506110b7836111db565b6110c08361120f565b111580156110de57506110d2826111f1565b6110db846111f1565b11155b5b905092915050565b600060207f01000000000000000000000000000000000000000000000000000000000000000260207f0100000000000000000000000000000000000000000000000000000000000000028361113b866111db565b81518110151561114757fe5b9060200101517f010000000000000000000000000000000000000000000000000000000000000090047f010000000000000000000000000000000000000000000000000000000000000002167effffffffffffffffffffffffffffffffffffffffffffffffffffffffffffff19161415156111c157600080fd5b6111d3826111ce8561120f565b61122d565b905092915050565b60008169ffffffffffffffffffff169050919050565b600060a0829060020a900469ffffffffffffffffffff169050919050565b60006050829060020a900469ffffffffffffffffffff169050919050565b600080600080600080606060008960018a0181518110151561124b57fe5b9060200101517f010000000000000000000000000000000000000000000000000000000000000090047f0100000000000000000000000000000000000000000000000000000000000000027f01000000000000000000000000000000000000000000000000000000000000009004965060007f01000000000000000000000000000000000000000000000000000000000000000260807f0100000000000000000000000000000000000000000000000000000000000000028b60018c0181518110151561131457fe5b9060200101517f010000000000000000000000000000000000000000000000000000000000000090047f010000000000000000000000000000000000000000000000000000000000000002167effffffffffffffffffffffffffffffffffffffffffffffffffffffffffffff1916141561139e5786955060028901945060018686010393506114ac565b607f87169250826040519080825280601f01601f1916602001820160405280156113d75781602001602082028038833980820191505090505b509150600090505b8281101561149057898160028b01018151811015156113fa57fe5b9060200101517f010000000000000000000000000000000000000000000000000000000000000090047f010000000000000000000000000000000000000000000000000000000000000002828281518110151561145357fe5b9060200101907effffffffffffffffffffffffffffffffffffffffffffffffffffffffffffff1916908160001a90535080806001019150506113df565b61149982610d6d565b95508260028a0101945060018686010393505b6114b78986866114c6565b97505050505050505092915050565b60006050839060020a028417935060a0829060020a028417935083905093925050505600a165627a7a7230582090fe91bb90be43473c69249c0277bd94d3b4b927c6182360a4a531004ebe48a30029",
  "source": "pragma solidity  ^0.4.23;\n\nlibrary NodePtr {\n  function ixs(uint self) internal pure returns (uint) {\n    return uint80(self);\n  }\n  function ixf(uint self) internal pure returns (uint) {\n    return uint80(self>>80);\n  }\n  function ixl(uint self) internal pure returns (uint) {\n    return uint80(self>>160);\n  }\n  function getPtr(uint _ixs, uint _ixf, uint _ixl) internal pure returns (uint) {\n    _ixs |= _ixf<<80;\n    _ixs |= _ixl<<160;\n    return _ixs;\n  }\n}\n\nlibrary Asn1Decode {\n  using NodePtr for uint;\n\n  /*\n   * First step in traversing an asn1 structure\n   *\n   * @param der The der-encoded asn1 structure\n   * @return a NodePtr object pointing to the outermost node\n   */\n  function root(bytes der) public pure returns (uint) {\n  \treturn asn1_read_length(der, 0);\n  }\n\n  /*\n   * Get the next sibling node\n   *\n   * @param der The der-encoded asn1 structure\n   * @param n The current node\n   * @return a NodePtr object pointing to the next sibling node\n   */\n  function next(uint self, bytes der) public pure returns (uint) {\n  \treturn asn1_read_length(der, self.ixl()+1);\n  }\n\n  /*\n   * Get the first child node of the current node\n   *\n   * @param der The der-encoded asn1 structure\n   * @param n The current node\n   * @return a NodePtr object pointing to the next sibling node\n   */\n  function firstChild(uint self, bytes der) public pure returns (uint) {\n    // Can only open constructed types\n  \trequire(der[self.ixs()] & 0x20 == 0x20);\n  \treturn asn1_read_length(der, self.ixf());\n  }\n\n  /*\n   * Returs true if j is child of i or if i is child of j. Used for looping\n   * through children of a given node (either i or j).\n   *\n   * @param i Pointer to an asn1 node\n   * @param j Pointer to another asn1 node of the same asn1 structure\n   * @return weather i or j is the direct child of the other.\n   */\n  function isChildOf(uint i/*aka self*/, uint j) public pure returns (bool) {\n  \treturn ( ((i.ixf() <= j.ixs()) && (j.ixl() <= i.ixl())) ||\n             ((j.ixf() <= i.ixs()) && (i.ixl() <= j.ixl())) );\n  }\n  /*\n   * @dev Traverses a der-encoded chunk of bytes by repeatedly using next() and\n   * firstChild() in an alternating fashion.\n   *\n   * @param der The der-encoded asn1 structure to traverse\n   * @param location The encoded traversal instructions\n   *    - every even-index byte performes a next() operation a number of\n          times equal to its value\n   *    - every odd-index byte performs a firstChild() operation a number of\n          times equal to its value\n   *    ex: \\x00\\x02\\x01 performs root() then  (0 x next()) then\n          (2 x firstChild()) then (1 x next())\n   *\n   *  @return a NodePtr struct pointing to the index of the node traversed to\n   */\n   bytes constant public COMMON_NAME = \"\\x55\\x04\\x03\";\n   // shortcuts to commonly used X509 nodes\n   bytes constant public LOCATION_SERIAL_NUMBER = '\\x00\\x02\\x01';\n   bytes constant public LOCATION_VALID_NOT_BEFORE = '\\x00\\x02\\x04\\x01';\n   bytes constant public LOCATION_VALID_NOT_AFTER = '\\x00\\x02\\x04\\x01\\x01';\n   bytes constant public LOCATION_PUB_KEY = '\\x00\\x02\\x06';\n  function traverse(bytes der, bytes location) public pure returns (uint) {\n    uint node;\n    uint8 j;\n    uint8 k;\n\n    node = root(der);\n    for (j=0; j<location.length; j++) {\n      if (j % 2 == 0) {\n        for (k=0; k<uint8(location[j]); k++) {\n          node = next(node, der);\n        }\n      } else {\n        for (k=0; k<uint8(location[j]); k++) {\n          node = firstChild(node, der);\n        }\n      }\n    }\n\n    return node;\n  }\n\n  // Get the value of the node\n  function getValue(uint self, bytes der) public pure returns (bytes) {\n    uint valueLength = self.ixl() + 1 - self.ixf();\n    bytes memory ret = new bytes(valueLength);                 // currently there cannot be dynamic arrays in memory. This will need to be changed next protocol update\n    for (uint i=0; i<valueLength; i++) {\n      ret[i] = der[self.ixf() + i];\n    }\n  \treturn ret;\n  }\n\n  // Get the entire node\n  function getAll(uint self, bytes der) public pure returns (bytes) {\n    uint valueLength = self.ixl() + 1 - self.ixs();\n    bytes memory ret = new bytes(valueLength);                 // currently there cannot be dynamic arrays in memory. This will need to be changed next protocol update\n    for (uint i=0; i<valueLength; i++) {\n      ret[i] = der[self.ixs() + i];\n    }\n  \treturn ret;\n  }\n\n  function decodeBitstring(bytes bitstr) public pure returns (bytes) {\n    // Only 00 padded bitstr can be converted to bytestr!\n  \trequire(bitstr[0] == 0x00);\n  \tbytes memory ret = new bytes(bitstr.length-1);\n    for (uint i=0; i<ret.length; i++) {\n      ret[i] = bitstr[i+1];\n    }\n  \treturn ret;\n  }\n\n  // Might need to be looked at / tested thoroughly\n  function decodeUint(bytes encodedUint) public pure returns (uint) {\n    uint i = 0;\n    for (uint8 j=0; j<encodedUint.length; j++) {\n      i <<= 8;\n  \ti |= uint(encodedUint[j]);\n    }\n  \treturn i;\n  }\n\n  // helper func\n  function asn1_read_length(bytes der, uint ix) private pure returns (uint) {\n  \tuint first = uint(der[ix+1]);\n    uint length;\n    uint ix_first_content_byte;\n    uint ix_last_content_byte;\n  \tif ((der[ix+1] & 0x80) == 0) {\n  \t\tlength = first;\n  \t\tix_first_content_byte = ix+2;\n  \t\tix_last_content_byte = ix_first_content_byte + length -1;\n    } else {  // -------------------- not thoroughly tested!! ------------------\n      uint lengthbytesLength = first & 0x7F;\n      bytes memory lengthbytes = new bytes(lengthbytesLength);\n      for (uint i=0; i<lengthbytesLength; i++) {\n          lengthbytes[i] = der[ix+2 + i];\n      }\n  \t\tlength = decodeUint(lengthbytes);\n  \t\tix_first_content_byte = ix+2+lengthbytesLength;\n  \t\tix_last_content_byte = ix_first_content_byte + length -1;\n    } // -----------------------------------------------------------------------\n    return NodePtr.getPtr(ix, ix_first_content_byte, ix_last_content_byte);\n  }\n}\n",
  "sourcePath": "asn1-decode/contracts/Asn1Decode.sol",
  "compiler": {
    "name": "solc",
    "version": "0.4.25+commit.59dbf8f1.Emscripten.clang"
  },
  "schemaVersion": "3.0.0-beta.1",
  "updatedAt": "2018-11-21T20:51:05.244Z"
}