{
  "contractName": "Pkcs1Sha256Verify",
  "abi": [
    {
      "constant": false,
      "inputs": [
        {
          "name": "hash",
          "type": "bytes32"
        },
        {
          "name": "s",
          "type": "bytes"
        },
        {
          "name": "e",
          "type": "bytes"
        },
        {
          "name": "m",
          "type": "bytes"
        }
      ],
      "name": "verify",
      "outputs": [
        {
          "name": "",
          "type": "bool"
        }
      ],
      "payable": false,
      "stateMutability": "nonpayable",
      "type": "function"
    }
  ],
  "bytecode": "0x610567610030600b82828239805160001a6073146000811461002057610022565bfe5b5030600052607381538281f3007300000000000000000000000000000000000000003014608060405260043610610058576000357c0100000000000000000000000000000000000000000000000000000000900463ffffffff168063c658da511461005d575b600080fd5b81801561006957600080fd5b5061015e6004803603810190808035600019169060200190929190803590602001908201803590602001908080601f0160208091040260200160405190810160405280939291908181526020018383808284378201915050505050509192919290803590602001908201803590602001908080601f0160208091040260200160405190810160405280939291908181526020018383808284378201915050505050509192919290803590602001908201803590602001908080601f0160208091040260200160405190810160405280939291908181526020018383808284378201915050505050509192919290505050610178565b604051808215151515815260200191505060405180910390f35b60008060606101888486886101bd565b80925081935050508180156101b157506101a68160208351036101d8565b600019168760001916145b92505050949350505050565b600060606101cc8385876101fc565b91509150935093915050565b6000825160208301111515156101ed57600080fd5b81602084010151905092915050565b60006060600061020a610521565b8451865188516060010101915061022a828261030290919063ffffffff16565b5061024287516001028261035990919063ffffffff16565b5061025a86516001028261035990919063ffffffff16565b5061027285516001028261035990919063ffffffff16565b50610286878261037b90919063ffffffff16565b5061029a868261037b90919063ffffffff16565b506102ae858261037b90919063ffffffff16565b5084516040519080825280601f01601f1916602001820160405280156102e35781602001602082028038833980820191505090505b50925084516020840183602084510160055afa93505050935093915050565b61030a610521565b600060208381151561031857fe5b061415156103355760208281151561032c57fe5b06602003820191505b81836020018181525050604051808452600081528281016040525082905092915050565b610361610521565b6103738384600001515184602061039d565b905092915050565b610383610521565b6103958384600001515184855161041d565b905092915050565b6103a5610521565b6000856020015185840111156103d0576103cf8660026103c98960200151876104e1565b026104fd565b5b6001836101000a0390508260200360080284600019169060020a90049350855183868201018583198251161781528151858801111561040f5784870182525b505085915050949350505050565b610425610521565b60008060008551851115151561043a57600080fd5b876020015188600001515186890101111561046c5761046b8860026104658b602001518b8a016104e1565b026104fd565b5b8751805188602083010194508089880111156104885788870182525b60208801935050505b6020851015156104b65781518352602083019250602082019150602085039450610491565b6001856020036101000a03905080198251168184511681811785525050879350505050949350505050565b6000818311156104f3578290506104f7565b8190505b92915050565b6060826000015190506105108383610302565b5061051b838261037b565b50505050565b6040805190810160405280606081526020016000815250905600a165627a7a72305820e4ad1692e11c2a344433be312d96b2b061ce883460bc25e8bc41aab1ace2202a0029",
  "source": "pragma solidity  ^0.4.19;\n\nimport \"@ensdomains/dnssec-oracle/contracts/algorithms/RSAVerify.sol\";\n\nlibrary Pkcs1Sha256Verify {\n\n  function readBytes32(bytes memory self, uint idx) internal pure returns (bytes32 ret) {\n    require(idx + 32 <= self.length);\n    assembly {\n      ret := mload(add(add(self, 32), idx))\n    }\n  }\n\n  function verify(bytes32 hash, bytes s, bytes e, bytes m) public returns (bool) {\n    bool ok;\n    bytes memory result;\n\n    (ok, result) = RSAVerify.rsarecover(m, e, s);\n\n    return ok && hash == readBytes32(result, result.length - 32);\n  }\n}\n",
  "sourcePath": "/home/jonah/pkcs1-sha256-verify/contracts/Pkcs1Sha256Verify.sol",
  "compiler": {
    "name": "solc",
    "version": "0.4.25+commit.59dbf8f1.Emscripten.clang"
  },
  "schemaVersion": "3.0.0-beta.1",
  "updatedAt": "2018-11-20T19:36:55.909Z"
}