{
  "contractName": "RsaSha256Algorithm",
  "abi": [
    {
      "anonymous": false,
      "inputs": [
        {
          "indexed": false,
          "name": "",
          "type": "bytes1"
        }
      ],
      "name": "Print",
      "type": "event"
    },
    {
      "constant": true,
      "inputs": [
        {
          "name": "key",
          "type": "bytes"
        },
        {
          "name": "data",
          "type": "bytes"
        },
        {
          "name": "sig",
          "type": "bytes"
        }
      ],
      "name": "verify",
      "outputs": [
        {
          "name": "",
          "type": "bool"
        }
      ],
      "payable": false,
      "stateMutability": "view",
      "type": "function"
    }
  ],
  "bytecode": "0x608060405234801561001057600080fd5b50611077806100206000396000f300608060405260043610610041576000357c0100000000000000000000000000000000000000000000000000000000900463ffffffff168063de8f50a114610046575b600080fd5b34801561005257600080fd5b506100af6004803603810190808035906020019082018035906020019190919293919293908035906020019082018035906020019190919293919293908035906020019082018035906020019190919293919293905050506100c9565b604051808215151515815260200191505060405180910390f35b600080606080606061010c8b8b8080601f0160208091040260200160405190810160405280939291908181526020018383808284378201915050505050506101ee565b8092508193505050610151828289898080601f016020809104026020016040519081016040528093929190818152602001838380828437820191505050505050610362565b80945081955050508380156101de575061017860208451038461037d90919063ffffffff16565b6000191660028a8a604051808383808284378201915050925050506020604051808303816000865af11580156101b2573d6000803e3d6000fd5b5050506040513d60208110156101c757600080fd5b810190808051906020019092919050505060001916145b9450505050509695505050505050565b606080600080606080610200876103a1565b925061021583886103b590919063ffffffff16565b925061023c61022d84896103b590919063ffffffff16565b886104a990919063ffffffff16565b6040518082805190602001908083835b602083101515610271578051825260208201915060208101905060208303925061024c565b6001836020036101000a038019825116818451168082178552505050505050905001915050604051809103902093507f3be606946d6f343b24d5ecdbd7e3370a5303ed54845f50f466a35f3bbeb46a4560010284600019161415156102d557600080fd5b6102e883886104eb90919063ffffffff16565b92506102fd838861050a90919063ffffffff16565b925061031283886103b590919063ffffffff16565b925061032783886105dc90919063ffffffff16565b915061033c83886104eb90919063ffffffff16565b925061035183886105dc90919063ffffffff16565b905081819550955050505050915091565b60006060610371838587610881565b91509150935093915050565b60008251602083011115151561039257600080fd5b81602084010151905092915050565b60006103ae826000610987565b9050919050565b600060207f01000000000000000000000000000000000000000000000000000000000000000260207f0100000000000000000000000000000000000000000000000000000000000000028461040985610c20565b81518110151561041557fe5b9060200101517f010000000000000000000000000000000000000000000000000000000000000090047f010000000000000000000000000000000000000000000000000000000000000002167effffffffffffffffffffffffffffffffffffffffffffffffffffffffffffff191614151561048f57600080fd5b6104a18361049c84610c36565b610987565b905092915050565b606060006104b683610c36565b60016104c185610c54565b010390506104e26104d184610c36565b8286610c729092919063ffffffff16565b91505092915050565b60006105028360016104fc85610c54565b01610987565b905092915050565b600060037f0100000000000000000000000000000000000000000000000000000000000000028361053a84610c20565b81518110151561054657fe5b9060200101517f010000000000000000000000000000000000000000000000000000000000000090047f0100000000000000000000000000000000000000000000000000000000000000027effffffffffffffffffffffffffffffffffffffffffffffffffffffffffffff19161415156105bf57600080fd5b6105d48360016105ce85610c36565b01610987565b905092915050565b6060600060027f0100000000000000000000000000000000000000000000000000000000000000028461060e85610c20565b81518110151561061a57fe5b9060200101517f010000000000000000000000000000000000000000000000000000000000000090047f0100000000000000000000000000000000000000000000000000000000000000027effffffffffffffffffffffffffffffffffffffffffffffffffffffffffffff191614151561069357600080fd5b60007f01000000000000000000000000000000000000000000000000000000000000000260807f010000000000000000000000000000000000000000000000000000000000000002856106e586610c36565b8151811015156106f157fe5b9060200101517f010000000000000000000000000000000000000000000000000000000000000090047f010000000000000000000000000000000000000000000000000000000000000002167effffffffffffffffffffffffffffffffffffffffffffffffffffffffffffff191614151561076b57600080fd5b61077483610c36565b600161077f85610c54565b0103905060007f010000000000000000000000000000000000000000000000000000000000000002846107b185610c36565b8151811015156107bd57fe5b9060200101517f010000000000000000000000000000000000000000000000000000000000000090047f0100000000000000000000000000000000000000000000000000000000000000027effffffffffffffffffffffffffffffffffffffffffffffffffffffffffffff1916141561085a57610853600161083e85610c36565b016001830386610c729092919063ffffffff16565b915061087a565b61087761086684610c36565b8286610c729092919063ffffffff16565b91505b5092915050565b60006060600061088f611031565b845186518851606001010191506108af8282610ce690919063ffffffff16565b506108c7875160010282610d3d90919063ffffffff16565b506108df865160010282610d3d90919063ffffffff16565b506108f7855160010282610d3d90919063ffffffff16565b5061090b8782610d5f90919063ffffffff16565b5061091f8682610d5f90919063ffffffff16565b506109338582610d5f90919063ffffffff16565b5084516040519080825280601f01601f1916602001820160405280156109685781602001602082028038833980820191505090505b50925084516020840183602084510160055afa93505050935093915050565b600080600080600080606060008960018a018151811015156109a557fe5b9060200101517f010000000000000000000000000000000000000000000000000000000000000090047f0100000000000000000000000000000000000000000000000000000000000000027f01000000000000000000000000000000000000000000000000000000000000009004965060007f01000000000000000000000000000000000000000000000000000000000000000260807f0100000000000000000000000000000000000000000000000000000000000000028b60018c01815181101515610a6e57fe5b9060200101517f010000000000000000000000000000000000000000000000000000000000000090047f010000000000000000000000000000000000000000000000000000000000000002167effffffffffffffffffffffffffffffffffffffffffffffffffffffffffffff19161415610af8578695506002890194506001868601039350610c06565b607f87169250826040519080825280601f01601f191660200182016040528015610b315781602001602082028038833980820191505090505b509150600090505b82811015610bea57898160028b0101815181101515610b5457fe5b9060200101517f010000000000000000000000000000000000000000000000000000000000000090047f0100000000000000000000000000000000000000000000000000000000000000028282815181101515610bad57fe5b9060200101907effffffffffffffffffffffffffffffffffffffffffffffffffffffffffffff1916908160001a9053508080600101915050610b39565b610bf382610d81565b95508260028a0101945060018686010393505b610c11898686610e3e565b97505050505050505092915050565b60008169ffffffffffffffffffff169050919050565b60006050829060020a900469ffffffffffffffffffff169050919050565b600060a0829060020a900469ffffffffffffffffffff169050919050565b606080600080865185870111151515610c8a57600080fd5b846040519080825280601f01601f191660200182016040528015610cbd5781602001602082028038833980820191505090505b5092506020830191508560208801019050610cd9828287610e62565b8293505050509392505050565b610cee611031565b6000602083811515610cfc57fe5b06141515610d1957602082811515610d1057fe5b06602003820191505b81836020018181525050604051808452600081528281016040525082905092915050565b610d45611031565b610d5783846000015151846020610ead565b905092915050565b610d67611031565b610d7983846000015151848551610f2d565b905092915050565b6000806000809150600090505b83518160ff161015610e34576008829060020a029150838160ff16815181101515610db557fe5b9060200101517f010000000000000000000000000000000000000000000000000000000000000090047f0100000000000000000000000000000000000000000000000000000000000000027f01000000000000000000000000000000000000000000000000000000000000009004821791508080600101915050610d8e565b8192505050919050565b60006050839060020a028417935060a0829060020a02841793508390509392505050565b60005b602082101515610e8a5782518452602084019350602083019250602082039150610e65565b6001826020036101000a0390508019835116818551168181178652505050505050565b610eb5611031565b600085602001518584011115610ee057610edf866002610ed9896020015187610ff1565b0261100d565b5b6001836101000a0390508260200360080284600019169060020a900493508551838682010185831982511617815281518588011115610f1f5784870182525b505085915050949350505050565b610f35611031565b600080600085518511151515610f4a57600080fd5b8760200151886000015151868901011115610f7c57610f7b886002610f758b602001518b8a01610ff1565b0261100d565b5b875180518860208301019450808988011115610f985788870182525b60208801935050505b602085101515610fc65781518352602083019250602082019150602085039450610fa1565b6001856020036101000a03905080198251168184511681811785525050879350505050949350505050565b60008183111561100357829050611007565b8190505b92915050565b6060826000015190506110208383610ce6565b5061102b8382610d5f565b50505050565b6040805190810160405280606081526020016000815250905600a165627a7a72305820b944cf77bd285da73f41a1a5216938f392bd7656607d5737051608ffbb3101cf0029",
  "source": "pragma solidity  ^0.4.24;\n\nimport \"./Algorithm.sol\";\nimport \"asn1-decode/contracts/Asn1Decode.sol\";\nimport \"@ensdomains/dnssec-oracle/contracts/BytesUtils.sol\";\nimport \"@ensdomains/dnssec-oracle/contracts/algorithms/RSAVerify.sol\";\n\ncontract RsaSha256Algorithm is Algorithm {\n  using BytesUtils for bytes;\n  using Asn1Decode for bytes;\n  using NodePtr for uint;\n\n  event Print(bytes1);\n\n  function verify(bytes key, bytes data, bytes sig)\n  external\n  view\n  returns (bool)\n  {\n    bool ok;\n    bytes memory result;\n    bytes memory m;\n    bytes memory e;\n\n    (m, e) = extractKeyComponents(key);\n\n    (ok, result) = RSAVerify.rsarecover(m, e, sig);\n\n    return ok && sha256(data) == result.readBytes32(result.length - 32);\n  }\n\n  /**\n   * @dev Extracts modulus and exponent (respectively) from a DER-encoded RSA public key\n   * @param key A DER-encoded RSA public key\n   */\n  function extractKeyComponents(bytes memory key)\n  private\n  pure\n  returns (bytes, bytes)\n  {\n    bytes32 oid;\n    uint node;\n    bytes memory modulus;\n    bytes memory exponent;\n\n    node = key.root();\n    node = key.firstChildOf(node);\n    // OID must be 1.2.840.113549.1.1.1 (rsaEncryption)\n    oid = keccak256(key.bytesAt(key.firstChildOf(node)));\n    require( oid == 0x3be606946d6f343b24d5ecdbd7e3370a5303ed54845f50f466a35f3bbeb46a45 );\n\n    node = key.nextSiblingOf(node);\n    node = key.rootOfBitstringAt(node);\n    node = key.firstChildOf(node);\n    modulus = key.uintBytesAt(node);\n    node = key.nextSiblingOf(node);\n    exponent = key.uintBytesAt(node);\n\n    return (modulus, exponent);\n  }\n}\n",
  "sourcePath": "/home/jonah/sig-verify-algs/contracts/RsaSha256Algorithm.sol",
  "compiler": {
    "name": "solc",
    "version": "0.4.25+commit.59dbf8f1.Emscripten.clang"
  },
  "schemaVersion": "3.0.0-beta.1",
  "updatedAt": "2018-11-24T18:36:21.345Z"
}