{
  "contractName": "RsaSha256Algorithm",
  "abi": [
    {
      "constant": true,
      "inputs": [
        {
          "name": "key",
          "type": "bytes"
        },
        {
          "name": "data",
          "type": "bytes"
        },
        {
          "name": "sig",
          "type": "bytes"
        }
      ],
      "name": "verify",
      "outputs": [
        {
          "name": "",
          "type": "bool"
        }
      ],
      "payable": false,
      "stateMutability": "view",
      "type": "function"
    }
  ],
  "bytecode": "0x608060405234801561001057600080fd5b50611151806100206000396000f300608060405260043610610041576000357c0100000000000000000000000000000000000000000000000000000000900463ffffffff168063de8f50a114610046575b600080fd5b34801561005257600080fd5b506100af6004803603810190808035906020019082018035906020019190919293919293908035906020019082018035906020019190919293919293908035906020019082018035906020019190919293919293905050506100c9565b604051808215151515815260200191505060405180910390f35b600080606080606061010c8b8b8080601f0160208091040260200160405190810160405280939291908181526020018383808284378201915050505050506101ee565b8092508193505050610151828289898080601f0160208091040260200160405190810160405280939291908181526020018383808284378201915050505050506106ac565b80945081955050508380156101de57506101786020845103846106c790919063ffffffff16565b6000191660028a8a604051808383808284378201915050925050506020604051808303816000865af11580156101b2573d6000803e3d6000fd5b5050506040513d60208110156101c757600080fd5b810190808051906020019092919050505060001916145b9450505050509695505050505050565b6060806000606080606080606060006102068a6106eb565b905061021b818b6106ff90919063ffffffff16565b9050610242610233828c6106ff90919063ffffffff16565b8b6107f390919063ffffffff16565b6040518082805190602001908083835b6020831015156102775780518252602082019150602081019050602083039250610252565b6001836020036101000a038019825116818451168082178552505050505050905001915050604051809103902096507f3be606946d6f343b24d5ecdbd7e3370a5303ed54845f50f466a35f3bbeb46a4560010287600019161415156102db57600080fd5b6102ee818b61083590919063ffffffff16565b9050610303818b61085490919063ffffffff16565b915061030e826106eb565b905061032381836106ff90919063ffffffff16565b905061033881836107f390919063ffffffff16565b935060007f01000000000000000000000000000000000000000000000000000000000000000260807f01000000000000000000000000000000000000000000000000000000000000000285600081518110151561039157fe5b9060200101517f010000000000000000000000000000000000000000000000000000000000000090047f010000000000000000000000000000000000000000000000000000000000000002167effffffffffffffffffffffffffffffffffffffffffffffffffffffffffffff191614151561040b57600080fd5b60007f01000000000000000000000000000000000000000000000000000000000000000284600081518110151561043e57fe5b9060200101517f010000000000000000000000000000000000000000000000000000000000000090047f0100000000000000000000000000000000000000000000000000000000000000027effffffffffffffffffffffffffffffffffffffffffffffffffffffffffffff191614156104d1576104ca6001808651038661089c9092919063ffffffff16565b95506104d5565b8395505b6104e8818361083590919063ffffffff16565b90506104fd81836107f390919063ffffffff16565b925060007f01000000000000000000000000000000000000000000000000000000000000000260807f01000000000000000000000000000000000000000000000000000000000000000284600081518110151561055657fe5b9060200101517f010000000000000000000000000000000000000000000000000000000000000090047f010000000000000000000000000000000000000000000000000000000000000002167effffffffffffffffffffffffffffffffffffffffffffffffffffffffffffff19161415156105d057600080fd5b60007f01000000000000000000000000000000000000000000000000000000000000000283600081518110151561060357fe5b9060200101517f010000000000000000000000000000000000000000000000000000000000000090047f0100000000000000000000000000000000000000000000000000000000000000027effffffffffffffffffffffffffffffffffffffffffffffffffffffffffffff191614156106965761068f6001808551038561089c9092919063ffffffff16565b945061069a565b8294505b85859850985050505050505050915091565b600060606106bb838587610910565b91509150935093915050565b6000825160208301111515156106dc57600080fd5b81602084010151905092915050565b60006106f8826000610a16565b9050919050565b600060207f01000000000000000000000000000000000000000000000000000000000000000260207f0100000000000000000000000000000000000000000000000000000000000000028461075385610caf565b81518110151561075f57fe5b9060200101517f010000000000000000000000000000000000000000000000000000000000000090047f010000000000000000000000000000000000000000000000000000000000000002167effffffffffffffffffffffffffffffffffffffffffffffffffffffffffffff19161415156107d957600080fd5b6107eb836107e684610cc5565b610a16565b905092915050565b6060600061080083610cc5565b600161080b85610ce3565b0103905061082c61081b84610cc5565b8286610d019092919063ffffffff16565b91505092915050565b600061084c83600161084685610ce3565b01610a16565b905092915050565b6060600061086183610cc5565b600161086c85610ce3565b01039050610893600161087e85610cc5565b016001830386610d019092919063ffffffff16565b91505092915050565b6060806000808651858701111515156108b457600080fd5b846040519080825280601f01601f1916602001820160405280156108e75781602001602082028038833980820191505090505b5092506020830191508560208801019050610903828287610d75565b8293505050509392505050565b60006060600061091e61110b565b8451865188516060010101915061093e8282610dc090919063ffffffff16565b50610956875160010282610e1790919063ffffffff16565b5061096e865160010282610e1790919063ffffffff16565b50610986855160010282610e1790919063ffffffff16565b5061099a8782610e3990919063ffffffff16565b506109ae8682610e3990919063ffffffff16565b506109c28582610e3990919063ffffffff16565b5084516040519080825280601f01601f1916602001820160405280156109f75781602001602082028038833980820191505090505b50925084516020840183602084510160055afa93505050935093915050565b600080600080600080606060008960018a01815181101515610a3457fe5b9060200101517f010000000000000000000000000000000000000000000000000000000000000090047f0100000000000000000000000000000000000000000000000000000000000000027f01000000000000000000000000000000000000000000000000000000000000009004965060007f01000000000000000000000000000000000000000000000000000000000000000260807f0100000000000000000000000000000000000000000000000000000000000000028b60018c01815181101515610afd57fe5b9060200101517f010000000000000000000000000000000000000000000000000000000000000090047f010000000000000000000000000000000000000000000000000000000000000002167effffffffffffffffffffffffffffffffffffffffffffffffffffffffffffff19161415610b87578695506002890194506001868601039350610c95565b607f87169250826040519080825280601f01601f191660200182016040528015610bc05781602001602082028038833980820191505090505b509150600090505b82811015610c7957898160028b0101815181101515610be357fe5b9060200101517f010000000000000000000000000000000000000000000000000000000000000090047f0100000000000000000000000000000000000000000000000000000000000000028282815181101515610c3c57fe5b9060200101907effffffffffffffffffffffffffffffffffffffffffffffffffffffffffffff1916908160001a9053508080600101915050610bc8565b610c8282610e5b565b95508260028a0101945060018686010393505b610ca0898686610f18565b97505050505050505092915050565b60008169ffffffffffffffffffff169050919050565b60006050829060020a900469ffffffffffffffffffff169050919050565b600060a0829060020a900469ffffffffffffffffffff169050919050565b606080600080865185870111151515610d1957600080fd5b846040519080825280601f01601f191660200182016040528015610d4c5781602001602082028038833980820191505090505b5092506020830191508560208801019050610d68828287610f3c565b8293505050509392505050565b60005b602082101515610d9d5782518452602084019350602083019250602082039150610d78565b6001826020036101000a0390508019835116818551168181178652505050505050565b610dc861110b565b6000602083811515610dd657fe5b06141515610df357602082811515610dea57fe5b06602003820191505b81836020018181525050604051808452600081528281016040525082905092915050565b610e1f61110b565b610e3183846000015151846020610f87565b905092915050565b610e4161110b565b610e5383846000015151848551611007565b905092915050565b6000806000809150600090505b83518160ff161015610f0e576008829060020a029150838160ff16815181101515610e8f57fe5b9060200101517f010000000000000000000000000000000000000000000000000000000000000090047f0100000000000000000000000000000000000000000000000000000000000000027f01000000000000000000000000000000000000000000000000000000000000009004821791508080600101915050610e68565b8192505050919050565b60006050839060020a028417935060a0829060020a02841793508390509392505050565b60005b602082101515610f645782518452602084019350602083019250602082039150610f3f565b6001826020036101000a0390508019835116818551168181178652505050505050565b610f8f61110b565b600085602001518584011115610fba57610fb9866002610fb38960200151876110cb565b026110e7565b5b6001836101000a0390508260200360080284600019169060020a900493508551838682010185831982511617815281518588011115610ff95784870182525b505085915050949350505050565b61100f61110b565b60008060008551851115151561102457600080fd5b87602001518860000151518689010111156110565761105588600261104f8b602001518b8a016110cb565b026110e7565b5b8751805188602083010194508089880111156110725788870182525b60208801935050505b6020851015156110a0578151835260208301925060208201915060208503945061107b565b6001856020036101000a03905080198251168184511681811785525050879350505050949350505050565b6000818311156110dd578290506110e1565b8190505b92915050565b6060826000015190506110fa8383610dc0565b506111058382610e39565b50505050565b6040805190810160405280606081526020016000815250905600a165627a7a72305820fa30b0d3e01491080c4dca0ddbedca75e1592765a9ff17684c97749845e59c1d0029",
  "source": "pragma solidity  ^0.4.24;\n\nimport \"./Algorithm.sol\";\nimport \"asn1-decode/contracts/Asn1Decode.sol\";\nimport \"@ensdomains/dnssec-oracle/contracts/BytesUtils.sol\";\nimport \"@ensdomains/dnssec-oracle/contracts/algorithms/RSAVerify.sol\";\n\ncontract RsaSha256Algorithm is Algorithm {\n  using Asn1Decode for bytes;\n  using BytesUtils for bytes;\n\n  function verify(bytes key, bytes data, bytes sig)\n  external\n  view\n  returns (bool)\n  {\n    bool ok;\n    bytes memory result;\n    bytes memory m;\n    bytes memory e;\n\n    (m, e) = extractKeyComponents(key);\n\n    (ok, result) = RSAVerify.rsarecover(m, e, sig);\n\n    return ok && sha256(data) == result.readBytes32(result.length - 32);\n  }\n\n  /**\n   * @dev Extracts modulus and exponent (respectively) from a DER-encoded RSA public key\n   * @param key A DER-encoded RSA public key\n   */\n  function extractKeyComponents(bytes memory key)\n  private\n  pure\n  returns (bytes, bytes)\n  {\n    bytes32 oid;\n    bytes memory modulus;\n    bytes memory exponent;\n    bytes memory encodedModulus;\n    bytes memory encodedExponent;\n    bytes memory bitstring;\n    uint node;\n\n    node = key.root();\n    node = key.firstChildOf(node);\n    // OID must be 1.2.840.113549.1.1.1 (rsaEncryption)\n    oid = keccak256(key.bytesAt(key.firstChildOf(node)));\n    require( oid == 0x3be606946d6f343b24d5ecdbd7e3370a5303ed54845f50f466a35f3bbeb46a45 );\n\n    node = key.nextSiblingOf(node);\n    /* // Decode bitstring\n    bitstring = key.bytesAt(node);\n    for (uint j=0; j<bitstring.length-1; j++) {\n      bitstring[j] = bitstring[j+1];\n    } */\n    bitstring = key.bitstringAt(node);\n    node = bitstring.root();\n    node = bitstring.firstChildOf(node);\n    encodedModulus = bitstring.bytesAt(node);\n    // modulus must be positive\n    require( encodedModulus[0] & 0x80 == 0 );\n    // remove leading zero byte from der encoding of modulus if present\n    if (encodedModulus[0] == 0) {\n      modulus = encodedModulus.substring(1, encodedModulus.length-1);\n      /* modulus = new bytes(encodedModulus.length - 1);\n      for (uint index=0; index<modulus.length; index++) {\n        modulus[index] = encodedModulus[index+1];\n      } */\n    } else {\n       modulus = encodedModulus;\n    }\n    node = bitstring.nextSiblingOf(node);\n    encodedExponent = bitstring.bytesAt(node);\n    // exponent must be positive\n    require( encodedExponent[0] & 0x80 == 0 );\n    // remove leading zero byte from der encoding of exponent if present\n    if (encodedExponent[0] == 0) {\n      exponent = encodedExponent.substring(1, encodedExponent.length-1);\n      /* exponent = new bytes(encodedExponent.length - 1);\n      for (index=0; index<exponent.length; index++) {\n        exponent[index] = encodedExponent[index+1];\n      } */\n    } else {\n       exponent = encodedExponent;\n    }\n\n    return (modulus, exponent);\n  }\n}\n",
  "sourcePath": "/home/jonah/sig-verify-algs/contracts/RsaSha256Algorithm.sol",
  "compiler": {
    "name": "solc",
    "version": "0.4.25+commit.59dbf8f1.Emscripten.clang"
  },
  "schemaVersion": "3.0.0-beta.1",
  "updatedAt": "2018-11-23T22:24:53.430Z"
}